{
  "_format": "hh-sol-artifact-1",
  "contractName": "MetaToken",
  "sourceName": "contracts/MetaToken.sol",
  "abi": [
    {
      "inputs": [],
      "stateMutability": "nonpayable",
      "type": "constructor"
    },
    {
      "inputs": [],
      "name": "ApprovalCallerNotOwnerNorApproved",
      "type": "error"
    },
    {
      "inputs": [],
      "name": "ApprovalQueryForNonexistentToken",
      "type": "error"
    },
    {
      "inputs": [],
      "name": "BalanceQueryForZeroAddress",
      "type": "error"
    },
    {
      "inputs": [],
      "name": "MintERC2309QuantityExceedsLimit",
      "type": "error"
    },
    {
      "inputs": [],
      "name": "MintToZeroAddress",
      "type": "error"
    },
    {
      "inputs": [],
      "name": "MintZeroQuantity",
      "type": "error"
    },
    {
      "inputs": [],
      "name": "OwnerQueryForNonexistentToken",
      "type": "error"
    },
    {
      "inputs": [],
      "name": "OwnershipNotInitializedForExtraData",
      "type": "error"
    },
    {
      "inputs": [],
      "name": "TransferCallerNotOwnerNorApproved",
      "type": "error"
    },
    {
      "inputs": [],
      "name": "TransferFromIncorrectOwner",
      "type": "error"
    },
    {
      "inputs": [],
      "name": "TransferToNonERC721ReceiverImplementer",
      "type": "error"
    },
    {
      "inputs": [],
      "name": "TransferToZeroAddress",
      "type": "error"
    },
    {
      "inputs": [],
      "name": "URIQueryForNonexistentToken",
      "type": "error"
    },
    {
      "anonymous": false,
      "inputs": [
        {
          "indexed": true,
          "internalType": "address",
          "name": "owner",
          "type": "address"
        },
        {
          "indexed": true,
          "internalType": "address",
          "name": "approved",
          "type": "address"
        },
        {
          "indexed": true,
          "internalType": "uint256",
          "name": "tokenId",
          "type": "uint256"
        }
      ],
      "name": "Approval",
      "type": "event"
    },
    {
      "anonymous": false,
      "inputs": [
        {
          "indexed": true,
          "internalType": "address",
          "name": "owner",
          "type": "address"
        },
        {
          "indexed": true,
          "internalType": "address",
          "name": "operator",
          "type": "address"
        },
        {
          "indexed": false,
          "internalType": "bool",
          "name": "approved",
          "type": "bool"
        }
      ],
      "name": "ApprovalForAll",
      "type": "event"
    },
    {
      "anonymous": false,
      "inputs": [
        {
          "indexed": true,
          "internalType": "uint256",
          "name": "fromTokenId",
          "type": "uint256"
        },
        {
          "indexed": false,
          "internalType": "uint256",
          "name": "toTokenId",
          "type": "uint256"
        },
        {
          "indexed": true,
          "internalType": "address",
          "name": "from",
          "type": "address"
        },
        {
          "indexed": true,
          "internalType": "address",
          "name": "to",
          "type": "address"
        }
      ],
      "name": "ConsecutiveTransfer",
      "type": "event"
    },
    {
      "anonymous": false,
      "inputs": [
        {
          "indexed": true,
          "internalType": "address",
          "name": "previousOwner",
          "type": "address"
        },
        {
          "indexed": true,
          "internalType": "address",
          "name": "newOwner",
          "type": "address"
        }
      ],
      "name": "OwnershipTransferred",
      "type": "event"
    },
    {
      "anonymous": false,
      "inputs": [
        {
          "indexed": true,
          "internalType": "address",
          "name": "from",
          "type": "address"
        },
        {
          "indexed": true,
          "internalType": "address",
          "name": "to",
          "type": "address"
        },
        {
          "indexed": true,
          "internalType": "uint256",
          "name": "tokenId",
          "type": "uint256"
        }
      ],
      "name": "Transfer",
      "type": "event"
    },
    {
      "inputs": [
        {
          "internalType": "address",
          "name": "to",
          "type": "address"
        },
        {
          "internalType": "uint256",
          "name": "tokenId",
          "type": "uint256"
        }
      ],
      "name": "approve",
      "outputs": [],
      "stateMutability": "payable",
      "type": "function"
    },
    {
      "inputs": [
        {
          "internalType": "address",
          "name": "owner",
          "type": "address"
        }
      ],
      "name": "balanceOf",
      "outputs": [
        {
          "internalType": "uint256",
          "name": "",
          "type": "uint256"
        }
      ],
      "stateMutability": "view",
      "type": "function"
    },
    {
      "inputs": [
        {
          "internalType": "uint256",
          "name": "tokenId",
          "type": "uint256"
        }
      ],
      "name": "getApproved",
      "outputs": [
        {
          "internalType": "address",
          "name": "",
          "type": "address"
        }
      ],
      "stateMutability": "view",
      "type": "function"
    },
    {
      "inputs": [
        {
          "internalType": "address",
          "name": "owner",
          "type": "address"
        },
        {
          "internalType": "address",
          "name": "operator",
          "type": "address"
        }
      ],
      "name": "isApprovedForAll",
      "outputs": [
        {
          "internalType": "bool",
          "name": "",
          "type": "bool"
        }
      ],
      "stateMutability": "view",
      "type": "function"
    },
    {
      "inputs": [
        {
          "internalType": "address",
          "name": "to",
          "type": "address"
        },
        {
          "internalType": "uint256",
          "name": "quantity",
          "type": "uint256"
        }
      ],
      "name": "mint",
      "outputs": [],
      "stateMutability": "payable",
      "type": "function"
    },
    {
      "inputs": [],
      "name": "name",
      "outputs": [
        {
          "internalType": "string",
          "name": "",
          "type": "string"
        }
      ],
      "stateMutability": "view",
      "type": "function"
    },
    {
      "inputs": [],
      "name": "owner",
      "outputs": [
        {
          "internalType": "address",
          "name": "",
          "type": "address"
        }
      ],
      "stateMutability": "view",
      "type": "function"
    },
    {
      "inputs": [
        {
          "internalType": "uint256",
          "name": "tokenId",
          "type": "uint256"
        }
      ],
      "name": "ownerOf",
      "outputs": [
        {
          "internalType": "address",
          "name": "",
          "type": "address"
        }
      ],
      "stateMutability": "view",
      "type": "function"
    },
    {
      "inputs": [],
      "name": "promptDescription",
      "outputs": [
        {
          "internalType": "string",
          "name": "",
          "type": "string"
        },
        {
          "internalType": "string[5]",
          "name": "",
          "type": "string[5]"
        }
      ],
      "stateMutability": "pure",
      "type": "function"
    },
    {
      "inputs": [],
      "name": "renounceOwnership",
      "outputs": [],
      "stateMutability": "nonpayable",
      "type": "function"
    },
    {
      "inputs": [
        {
          "internalType": "address",
          "name": "from",
          "type": "address"
        },
        {
          "internalType": "address",
          "name": "to",
          "type": "address"
        },
        {
          "internalType": "uint256",
          "name": "tokenId",
          "type": "uint256"
        }
      ],
      "name": "safeTransferFrom",
      "outputs": [],
      "stateMutability": "payable",
      "type": "function"
    },
    {
      "inputs": [
        {
          "internalType": "address",
          "name": "from",
          "type": "address"
        },
        {
          "internalType": "address",
          "name": "to",
          "type": "address"
        },
        {
          "internalType": "uint256",
          "name": "tokenId",
          "type": "uint256"
        },
        {
          "internalType": "bytes",
          "name": "_data",
          "type": "bytes"
        }
      ],
      "name": "safeTransferFrom",
      "outputs": [],
      "stateMutability": "payable",
      "type": "function"
    },
    {
      "inputs": [
        {
          "internalType": "address",
          "name": "operator",
          "type": "address"
        },
        {
          "internalType": "bool",
          "name": "approved",
          "type": "bool"
        }
      ],
      "name": "setApprovalForAll",
      "outputs": [],
      "stateMutability": "nonpayable",
      "type": "function"
    },
    {
      "inputs": [
        {
          "internalType": "string",
          "name": "baseURI",
          "type": "string"
        }
      ],
      "name": "setBaseURI",
      "outputs": [],
      "stateMutability": "nonpayable",
      "type": "function"
    },
    {
      "inputs": [
        {
          "internalType": "bytes4",
          "name": "interfaceId",
          "type": "bytes4"
        }
      ],
      "name": "supportsInterface",
      "outputs": [
        {
          "internalType": "bool",
          "name": "",
          "type": "bool"
        }
      ],
      "stateMutability": "view",
      "type": "function"
    },
    {
      "inputs": [],
      "name": "symbol",
      "outputs": [
        {
          "internalType": "string",
          "name": "",
          "type": "string"
        }
      ],
      "stateMutability": "view",
      "type": "function"
    },
    {
      "inputs": [
        {
          "internalType": "uint256",
          "name": "tokenId",
          "type": "uint256"
        }
      ],
      "name": "tokenURI",
      "outputs": [
        {
          "internalType": "string",
          "name": "",
          "type": "string"
        }
      ],
      "stateMutability": "view",
      "type": "function"
    },
    {
      "inputs": [],
      "name": "totalSupply",
      "outputs": [
        {
          "internalType": "uint256",
          "name": "",
          "type": "uint256"
        }
      ],
      "stateMutability": "view",
      "type": "function"
    },
    {
      "inputs": [
        {
          "internalType": "address",
          "name": "from",
          "type": "address"
        },
        {
          "internalType": "address",
          "name": "to",
          "type": "address"
        },
        {
          "internalType": "uint256",
          "name": "tokenId",
          "type": "uint256"
        }
      ],
      "name": "transferFrom",
      "outputs": [],
      "stateMutability": "payable",
      "type": "function"
    },
    {
      "inputs": [
        {
          "internalType": "address",
          "name": "newOwner",
          "type": "address"
        }
      ],
      "name": "transferOwnership",
      "outputs": [],
      "stateMutability": "nonpayable",
      "type": "function"
    }
  ],
  "bytecode": "0x60806040526000600a553480156200001657600080fd5b506040518060400160405280600881526020017f48617273686974610000000000000000000000000000000000000000000000008152506040518060400160405280600481526020017f4861617600000000000000000000000000000000000000000000000000000000815250816002908162000094919062000437565b508060039081620000a6919062000437565b50620000b7620000e560201b60201c565b6000819055505050620000df620000d3620000ef60201b60201c565b620000f760201b60201c565b6200051e565b6000600a54905090565b600033905090565b6000600860009054906101000a900473ffffffffffffffffffffffffffffffffffffffff16905081600860006101000a81548173ffffffffffffffffffffffffffffffffffffffff021916908373ffffffffffffffffffffffffffffffffffffffff1602179055508173ffffffffffffffffffffffffffffffffffffffff168173ffffffffffffffffffffffffffffffffffffffff167f8be0079c531659141344cd1fd0a4f28419497f9722a3daafe3b4186f6b6457e060405160405180910390a35050565b600081519050919050565b7f4e487b7100000000000000000000000000000000000000000000000000000000600052604160045260246000fd5b7f4e487b7100000000000000000000000000000000000000000000000000000000600052602260045260246000fd5b600060028204905060018216806200023f57607f821691505b602082108103620002555762000254620001f7565b5b50919050565b60008190508160005260206000209050919050565b60006020601f8301049050919050565b600082821b905092915050565b600060088302620002bf7fffffffffffffffffffffffffffffffffffffffffffffffffffffffffffffffff8262000280565b620002cb868362000280565b95508019841693508086168417925050509392505050565b6000819050919050565b6000819050919050565b600062000318620003126200030c84620002e3565b620002ed565b620002e3565b9050919050565b6000819050919050565b6200033483620002f7565b6200034c62000343826200031f565b8484546200028d565b825550505050565b600090565b6200036362000354565b6200037081848462000329565b505050565b5b8181101562000398576200038c60008262000359565b60018101905062000376565b5050565b601f821115620003e757620003b1816200025b565b620003bc8462000270565b81016020851015620003cc578190505b620003e4620003db8562000270565b83018262000375565b50505b505050565b600082821c905092915050565b60006200040c60001984600802620003ec565b1980831691505092915050565b6000620004278383620003f9565b9150826002028217905092915050565b6200044282620001bd565b67ffffffffffffffff8111156200045e576200045d620001c8565b5b6200046a825462000226565b620004778282856200039c565b600060209050601f831160018114620004af57600084156200049a578287015190505b620004a6858262000419565b86555062000516565b601f198416620004bf866200025b565b60005b82811015620004e957848901518255600182019150602085019450602081019050620004c2565b8683101562000509578489015162000505601f891682620003f9565b8355505b6001600288020188555050505b505050505050565b6125dd806200052e6000396000f3fe60806040526004361061011f5760003560e01c806370a08231116100a0578063a22cb46511610064578063a22cb465146103a0578063b88d4fde146103c9578063c87b56dd146103e5578063e985e9c514610422578063f2fde38b1461045f5761011f565b806370a08231146102ca578063715018a6146103075780638da5cb5b1461031e578063953637311461034957806395d89b41146103755761011f565b806323b872dd116100e757806323b872dd1461021057806340c10f191461022c57806342842e0e1461024857806355f804b3146102645780636352211e1461028d5761011f565b806301ffc9a71461012457806306fdde0314610161578063081812fc1461018c578063095ea7b3146101c957806318160ddd146101e5575b600080fd5b34801561013057600080fd5b5061014b60048036038101906101469190611909565b610488565b6040516101589190611951565b60405180910390f35b34801561016d57600080fd5b5061017661051a565b60405161018391906119fc565b60405180910390f35b34801561019857600080fd5b506101b360048036038101906101ae9190611a54565b6105ac565b6040516101c09190611ac2565b60405180910390f35b6101e360048036038101906101de9190611b09565b61062b565b005b3480156101f157600080fd5b506101fa61076f565b6040516102079190611b58565b60405180910390f35b61022a60048036038101906102259190611b73565b610786565b005b61024660048036038101906102419190611b09565b610aa8565b005b610262600480360381019061025d9190611b73565b610ab6565b005b34801561027057600080fd5b5061028b60048036038101906102869190611c2b565b610ad6565b005b34801561029957600080fd5b506102b460048036038101906102af9190611a54565b610af4565b6040516102c19190611ac2565b60405180910390f35b3480156102d657600080fd5b506102f160048036038101906102ec9190611c78565b610b06565b6040516102fe9190611b58565b60405180910390f35b34801561031357600080fd5b5061031c610bbe565b005b34801561032a57600080fd5b50610333610bd2565b6040516103409190611ac2565b60405180910390f35b34801561035557600080fd5b5061035e610bfc565b60405161036c929190611da5565b60405180910390f35b34801561038157600080fd5b5061038a610d58565b60405161039791906119fc565b60405180910390f35b3480156103ac57600080fd5b506103c760048036038101906103c29190611e08565b610dea565b005b6103e360048036038101906103de9190611f78565b610ef5565b005b3480156103f157600080fd5b5061040c60048036038101906104079190611a54565b610f68565b60405161041991906119fc565b60405180910390f35b34801561042e57600080fd5b5061044960048036038101906104449190611ffb565b611006565b6040516104569190611951565b60405180910390f35b34801561046b57600080fd5b5061048660048036038101906104819190611c78565b61109a565b005b60006301ffc9a760e01b827bffffffffffffffffffffffffffffffffffffffffffffffffffffffff191614806104e357506380ac58cd60e01b827bffffffffffffffffffffffffffffffffffffffffffffffffffffffff1916145b806105135750635b5e139f60e01b827bffffffffffffffffffffffffffffffffffffffffffffffffffffffff1916145b9050919050565b6060600280546105299061206a565b80601f01602080910402602001604051908101604052809291908181526020018280546105559061206a565b80156105a25780601f10610577576101008083540402835291602001916105a2565b820191906000526020600020905b81548152906001019060200180831161058557829003601f168201915b5050505050905090565b60006105b78261111d565b6105ed576040517fcf4700e400000000000000000000000000000000000000000000000000000000815260040160405180910390fd5b6006600083815260200190815260200160002060000160009054906101000a900473ffffffffffffffffffffffffffffffffffffffff169050919050565b600061063682610af4565b90508073ffffffffffffffffffffffffffffffffffffffff1661065761117c565b73ffffffffffffffffffffffffffffffffffffffff16146106ba576106838161067e61117c565b611006565b6106b9576040517fcfb3b94200000000000000000000000000000000000000000000000000000000815260040160405180910390fd5b5b826006600084815260200190815260200160002060000160006101000a81548173ffffffffffffffffffffffffffffffffffffffff021916908373ffffffffffffffffffffffffffffffffffffffff160217905550818373ffffffffffffffffffffffffffffffffffffffff168273ffffffffffffffffffffffffffffffffffffffff167f8c5be1e5ebec7d5bd14f71427d1e84f3dd0314c0f7b2291e5b200ac8c7c3b92560405160405180910390a4505050565b6000610779611184565b6001546000540303905090565b60006107918261118e565b90508373ffffffffffffffffffffffffffffffffffffffff168173ffffffffffffffffffffffffffffffffffffffff16146107f8576040517fa114810000000000000000000000000000000000000000000000000000000000815260040160405180910390fd5b6000806108048461125a565b9150915061081a818761081561117c565b611281565b6108665761082f8661082a61117c565b611006565b610865576040517f59c896be00000000000000000000000000000000000000000000000000000000815260040160405180910390fd5b5b600073ffffffffffffffffffffffffffffffffffffffff168573ffffffffffffffffffffffffffffffffffffffff16036108cc576040517fea553b3400000000000000000000000000000000000000000000000000000000815260040160405180910390fd5b6108d986868660016112c5565b80156108e457600082555b600560008773ffffffffffffffffffffffffffffffffffffffff1673ffffffffffffffffffffffffffffffffffffffff168152602001908152602001600020600081546001900391905081905550600560008673ffffffffffffffffffffffffffffffffffffffff1673ffffffffffffffffffffffffffffffffffffffff16815260200190815260200160002060008154600101919050819055506109b28561098e8888876112cb565b7c0200000000000000000000000000000000000000000000000000000000176112f3565b600460008681526020019081526020016000208190555060007c0200000000000000000000000000000000000000000000000000000000841603610a385760006001850190506000600460008381526020019081526020016000205403610a36576000548114610a35578360046000838152602001908152602001600020819055505b5b505b838573ffffffffffffffffffffffffffffffffffffffff168773ffffffffffffffffffffffffffffffffffffffff167fddf252ad1be2c89b69c2b068fc378daa952ba7f163c4a11628f55a4df523b3ef60405160405180910390a4610aa0868686600161131e565b505050505050565b610ab28282611324565b5050565b610ad183838360405180602001604052806000815250610ef5565b505050565b610ade6114df565b818160099182610aef929190612252565b505050565b6000610aff8261118e565b9050919050565b60008073ffffffffffffffffffffffffffffffffffffffff168273ffffffffffffffffffffffffffffffffffffffff1603610b6d576040517f8f4eb60400000000000000000000000000000000000000000000000000000000815260040160405180910390fd5b67ffffffffffffffff600560008473ffffffffffffffffffffffffffffffffffffffff1673ffffffffffffffffffffffffffffffffffffffff16815260200190815260200160002054169050919050565b610bc66114df565b610bd0600061155d565b565b6000600860009054906101000a900473ffffffffffffffffffffffffffffffffffffffff16905090565b6060610c06611876565b6040518060a001604052806040518060400160405280600781526020017f312e74656464790000000000000000000000000000000000000000000000000081525081526020016040518060400160405280600681526020017f322e20436172000000000000000000000000000000000000000000000000000081525081526020016040518060400160405280600881526020017f332e206561676c6500000000000000000000000000000000000000000000000081525081526020016040518060400160405280601381526020017f342e20676f6c64656e207265747269657665720000000000000000000000000081525081526020016040518060400160405280600981526020017f352e206d6f6e6b657900000000000000000000000000000000000000000000008152508152506040518060800160405280604481526020016125646044913990915091509091565b606060038054610d679061206a565b80601f0160208091040260200160405190810160405280929190818152602001828054610d939061206a565b8015610de05780601f10610db557610100808354040283529160200191610de0565b820191906000526020600020905b815481529060010190602001808311610dc357829003601f168201915b5050505050905090565b8060076000610df761117c565b73ffffffffffffffffffffffffffffffffffffffff1673ffffffffffffffffffffffffffffffffffffffff16815260200190815260200160002060008473ffffffffffffffffffffffffffffffffffffffff1673ffffffffffffffffffffffffffffffffffffffff16815260200190815260200160002060006101000a81548160ff0219169083151502179055508173ffffffffffffffffffffffffffffffffffffffff16610ea461117c565b73ffffffffffffffffffffffffffffffffffffffff167f17307eab39ab6107e8899845ad3d59bd9653f200f220920489ca2b5937696c3183604051610ee99190611951565b60405180910390a35050565b610f00848484610786565b60008373ffffffffffffffffffffffffffffffffffffffff163b14610f6257610f2b84848484611623565b610f61576040517fd1a57ed600000000000000000000000000000000000000000000000000000000815260040160405180910390fd5b5b50505050565b6060610f738261111d565b610fa9576040517fa14c4b5000000000000000000000000000000000000000000000000000000000815260040160405180910390fd5b6000610fb3611773565b90506000815103610fd35760405180602001604052806000815250610ffe565b80610fdd84611805565b604051602001610fee92919061235e565b6040516020818303038152906040525b915050919050565b6000600760008473ffffffffffffffffffffffffffffffffffffffff1673ffffffffffffffffffffffffffffffffffffffff16815260200190815260200160002060008373ffffffffffffffffffffffffffffffffffffffff1673ffffffffffffffffffffffffffffffffffffffff16815260200190815260200160002060009054906101000a900460ff16905092915050565b6110a26114df565b600073ffffffffffffffffffffffffffffffffffffffff168173ffffffffffffffffffffffffffffffffffffffff1603611111576040517f08c379a0000000000000000000000000000000000000000000000000000000008152600401611108906123f4565b60405180910390fd5b61111a8161155d565b50565b600081611128611184565b11158015611137575060005482105b8015611175575060007c0100000000000000000000000000000000000000000000000000000000600460008581526020019081526020016000205416145b9050919050565b600033905090565b6000600a54905090565b6000808290508061119d611184565b11611223576000548110156112225760006004600083815260200190815260200160002054905060007c0100000000000000000000000000000000000000000000000000000000821603611220575b600081036112165760046000836001900393508381526020019081526020016000205490506111ec565b8092505050611255565b505b5b6040517fdf2d9b4200000000000000000000000000000000000000000000000000000000815260040160405180910390fd5b919050565b60008060006006600085815260200190815260200160002090508092508254915050915091565b600073ffffffffffffffffffffffffffffffffffffffff8316925073ffffffffffffffffffffffffffffffffffffffff821691508382148383141790509392505050565b50505050565b60008060e883901c905060e86112e2868684611855565b62ffffff16901b9150509392505050565b600073ffffffffffffffffffffffffffffffffffffffff83169250814260a01b178317905092915050565b50505050565b60008054905060008203611364576040517fb562e8dd00000000000000000000000000000000000000000000000000000000815260040160405180910390fd5b61137160008483856112c5565b600160406001901b178202600560008573ffffffffffffffffffffffffffffffffffffffff1673ffffffffffffffffffffffffffffffffffffffff168152602001908152602001600020600082825401925050819055506113e8836113d960008660006112cb565b6113e28561185e565b176112f3565b6004600083815260200190815260200160002081905550600080838301905073ffffffffffffffffffffffffffffffffffffffff85169150828260007fddf252ad1be2c89b69c2b068fc378daa952ba7f163c4a11628f55a4df523b3ef600080a4600183015b81811461148957808360007fddf252ad1be2c89b69c2b068fc378daa952ba7f163c4a11628f55a4df523b3ef600080a460018101905061144e565b50600082036114c4576040517f2e07630000000000000000000000000000000000000000000000000000000000815260040160405180910390fd5b8060008190555050506114da600084838561131e565b505050565b6114e761186e565b73ffffffffffffffffffffffffffffffffffffffff16611505610bd2565b73ffffffffffffffffffffffffffffffffffffffff161461155b576040517f08c379a000000000000000000000000000000000000000000000000000000000815260040161155290612460565b60405180910390fd5b565b6000600860009054906101000a900473ffffffffffffffffffffffffffffffffffffffff16905081600860006101000a81548173ffffffffffffffffffffffffffffffffffffffff021916908373ffffffffffffffffffffffffffffffffffffffff1602179055508173ffffffffffffffffffffffffffffffffffffffff168173ffffffffffffffffffffffffffffffffffffffff167f8be0079c531659141344cd1fd0a4f28419497f9722a3daafe3b4186f6b6457e060405160405180910390a35050565b60008373ffffffffffffffffffffffffffffffffffffffff1663150b7a0261164961117c565b8786866040518563ffffffff1660e01b815260040161166b94939291906124d5565b6020604051808303816000875af19250505080156116a757506040513d601f19601f820116820180604052508101906116a49190612536565b60015b611720573d80600081146116d7576040519150601f19603f3d011682016040523d82523d6000602084013e6116dc565b606091505b506000815103611718576040517fd1a57ed600000000000000000000000000000000000000000000000000000000815260040160405180910390fd5b805181602001fd5b63150b7a0260e01b7bffffffffffffffffffffffffffffffffffffffffffffffffffffffff1916817bffffffffffffffffffffffffffffffffffffffffffffffffffffffff191614915050949350505050565b6060600980546117829061206a565b80601f01602080910402602001604051908101604052809291908181526020018280546117ae9061206a565b80156117fb5780601f106117d0576101008083540402835291602001916117fb565b820191906000526020600020905b8154815290600101906020018083116117de57829003601f168201915b5050505050905090565b606060a060405101806040526020810391506000825281835b60011561184057600184039350600a81066030018453600a810490508061181e575b50828103602084039350808452505050919050565b60009392505050565b60006001821460e11b9050919050565b600033905090565b6040518060a001604052806005905b60608152602001906001900390816118855790505090565b6000604051905090565b600080fd5b600080fd5b60007fffffffff0000000000000000000000000000000000000000000000000000000082169050919050565b6118e6816118b1565b81146118f157600080fd5b50565b600081359050611903816118dd565b92915050565b60006020828403121561191f5761191e6118a7565b5b600061192d848285016118f4565b91505092915050565b60008115159050919050565b61194b81611936565b82525050565b60006020820190506119666000830184611942565b92915050565b600081519050919050565b600082825260208201905092915050565b60005b838110156119a657808201518184015260208101905061198b565b60008484015250505050565b6000601f19601f8301169050919050565b60006119ce8261196c565b6119d88185611977565b93506119e8818560208601611988565b6119f1816119b2565b840191505092915050565b60006020820190508181036000830152611a1681846119c3565b905092915050565b6000819050919050565b611a3181611a1e565b8114611a3c57600080fd5b50565b600081359050611a4e81611a28565b92915050565b600060208284031215611a6a57611a696118a7565b5b6000611a7884828501611a3f565b91505092915050565b600073ffffffffffffffffffffffffffffffffffffffff82169050919050565b6000611aac82611a81565b9050919050565b611abc81611aa1565b82525050565b6000602082019050611ad76000830184611ab3565b92915050565b611ae681611aa1565b8114611af157600080fd5b50565b600081359050611b0381611add565b92915050565b60008060408385031215611b2057611b1f6118a7565b5b6000611b2e85828601611af4565b9250506020611b3f85828601611a3f565b9150509250929050565b611b5281611a1e565b82525050565b6000602082019050611b6d6000830184611b49565b92915050565b600080600060608486031215611b8c57611b8b6118a7565b5b6000611b9a86828701611af4565b9350506020611bab86828701611af4565b9250506040611bbc86828701611a3f565b9150509250925092565b600080fd5b600080fd5b600080fd5b60008083601f840112611beb57611bea611bc6565b5b8235905067ffffffffffffffff811115611c0857611c07611bcb565b5b602083019150836001820283011115611c2457611c23611bd0565b5b9250929050565b60008060208385031215611c4257611c416118a7565b5b600083013567ffffffffffffffff811115611c6057611c5f6118ac565b5b611c6c85828601611bd5565b92509250509250929050565b600060208284031215611c8e57611c8d6118a7565b5b6000611c9c84828501611af4565b91505092915050565b600060059050919050565b600081905092915050565b6000819050919050565b600082825260208201905092915050565b6000611ce18261196c565b611ceb8185611cc5565b9350611cfb818560208601611988565b611d04816119b2565b840191505092915050565b6000611d1b8383611cd6565b905092915050565b6000602082019050919050565b6000611d3b82611ca5565b611d458185611cb0565b935083602082028501611d5785611cbb565b8060005b85811015611d935784840389528151611d748582611d0f565b9450611d7f83611d23565b925060208a01995050600181019050611d5b565b50829750879550505050505092915050565b60006040820190508181036000830152611dbf81856119c3565b90508181036020830152611dd38184611d30565b90509392505050565b611de581611936565b8114611df057600080fd5b50565b600081359050611e0281611ddc565b92915050565b60008060408385031215611e1f57611e1e6118a7565b5b6000611e2d85828601611af4565b9250506020611e3e85828601611df3565b9150509250929050565b600080fd5b7f4e487b7100000000000000000000000000000000000000000000000000000000600052604160045260246000fd5b611e85826119b2565b810181811067ffffffffffffffff82111715611ea457611ea3611e4d565b5b80604052505050565b6000611eb761189d565b9050611ec38282611e7c565b919050565b600067ffffffffffffffff821115611ee357611ee2611e4d565b5b611eec826119b2565b9050602081019050919050565b82818337600083830152505050565b6000611f1b611f1684611ec8565b611ead565b905082815260208101848484011115611f3757611f36611e48565b5b611f42848285611ef9565b509392505050565b600082601f830112611f5f57611f5e611bc6565b5b8135611f6f848260208601611f08565b91505092915050565b60008060008060808587031215611f9257611f916118a7565b5b6000611fa087828801611af4565b9450506020611fb187828801611af4565b9350506040611fc287828801611a3f565b925050606085013567ffffffffffffffff811115611fe357611fe26118ac565b5b611fef87828801611f4a565b91505092959194509250565b60008060408385031215612012576120116118a7565b5b600061202085828601611af4565b925050602061203185828601611af4565b9150509250929050565b7f4e487b7100000000000000000000000000000000000000000000000000000000600052602260045260246000fd5b6000600282049050600182168061208257607f821691505b6020821081036120955761209461203b565b5b50919050565b600082905092915050565b60008190508160005260206000209050919050565b60006020601f8301049050919050565b600082821b905092915050565b6000600883026121087fffffffffffffffffffffffffffffffffffffffffffffffffffffffffffffffff826120cb565b61211286836120cb565b95508019841693508086168417925050509392505050565b6000819050919050565b600061214f61214a61214584611a1e565b61212a565b611a1e565b9050919050565b6000819050919050565b61216983612134565b61217d61217582612156565b8484546120d8565b825550505050565b600090565b612192612185565b61219d818484612160565b505050565b5b818110156121c1576121b660008261218a565b6001810190506121a3565b5050565b601f821115612206576121d7816120a6565b6121e0846120bb565b810160208510156121ef578190505b6122036121fb856120bb565b8301826121a2565b50505b505050565b600082821c905092915050565b60006122296000198460080261220b565b1980831691505092915050565b60006122428383612218565b9150826002028217905092915050565b61225c838361209b565b67ffffffffffffffff81111561227557612274611e4d565b5b61227f825461206a565b61228a8282856121c5565b6000601f8311600181146122b957600084156122a7578287013590505b6122b18582612236565b865550612319565b601f1984166122c7866120a6565b60005b828110156122ef578489013582556001820191506020850194506020810190506122ca565b8683101561230c5784890135612308601f891682612218565b8355505b6001600288020188555050505b50505050505050565b600081905092915050565b60006123388261196c565b6123428185612322565b9350612352818560208601611988565b80840191505092915050565b600061236a828561232d565b9150612376828461232d565b91508190509392505050565b7f4f776e61626c653a206e6577206f776e657220697320746865207a65726f206160008201527f6464726573730000000000000000000000000000000000000000000000000000602082015250565b60006123de602683611977565b91506123e982612382565b604082019050919050565b6000602082019050818103600083015261240d816123d1565b9050919050565b7f4f776e61626c653a2063616c6c6572206973206e6f7420746865206f776e6572600082015250565b600061244a602083611977565b915061245582612414565b602082019050919050565b600060208201905081810360008301526124798161243d565b9050919050565b600081519050919050565b600082825260208201905092915050565b60006124a782612480565b6124b1818561248b565b93506124c1818560208601611988565b6124ca816119b2565b840191505092915050565b60006080820190506124ea6000830187611ab3565b6124f76020830186611ab3565b6125046040830185611b49565b8181036060830152612516818461249c565b905095945050505050565b600081519050612530816118dd565b92915050565b60006020828403121561254c5761254b6118a7565b5b600061255a84828501612521565b9150509291505056fe5468652050726f6d707473207573656420746f2067656e65726174652074686520696d616765732075736564206f6e2041646f62652046697265666c79206172653a3a20a2646970667358221220d0a0f98104f20658427a0837e1218412b1674935563fb3e710cb63f5d965c1ef64736f6c63430008120033",
  "linkReferences": {},
  "deployedLinkReferences": {}
}